{
	"casiono.sol": {
		"Casino": {
			"abi": [
				{
					"constant": false,
					"inputs": [],
					"name": "generateNumberWinner",
					"outputs": [],
					"payable": false,
					"stateMutability": "nonpayable",
					"type": "function"
				},
				{
					"constant": true,
					"inputs": [],
					"name": "numberOfBets",
					"outputs": [
						{
							"name": "",
							"type": "uint256"
						}
					],
					"payable": false,
					"stateMutability": "view",
					"type": "function"
				},
				{
					"constant": true,
					"inputs": [
						{
							"name": "player",
							"type": "address"
						}
					],
					"name": "checkPlayerExists",
					"outputs": [
						{
							"name": "",
							"type": "bool"
						}
					],
					"payable": false,
					"stateMutability": "view",
					"type": "function"
				},
				{
					"constant": false,
					"inputs": [],
					"name": "kill",
					"outputs": [],
					"payable": false,
					"stateMutability": "nonpayable",
					"type": "function"
				},
				{
					"constant": true,
					"inputs": [
						{
							"name": "",
							"type": "address"
						}
					],
					"name": "playerInfo",
					"outputs": [
						{
							"name": "amountBet",
							"type": "uint256"
						},
						{
							"name": "numberSelected",
							"type": "uint256"
						}
					],
					"payable": false,
					"stateMutability": "view",
					"type": "function"
				},
				{
					"constant": false,
					"inputs": [
						{
							"name": "numberWinner",
							"type": "uint256"
						}
					],
					"name": "distributePrizes",
					"outputs": [],
					"payable": false,
					"stateMutability": "nonpayable",
					"type": "function"
				},
				{
					"constant": false,
					"inputs": [
						{
							"name": "numberSelected",
							"type": "uint256"
						}
					],
					"name": "bet",
					"outputs": [],
					"payable": true,
					"stateMutability": "payable",
					"type": "function"
				},
				{
					"constant": true,
					"inputs": [],
					"name": "owner",
					"outputs": [
						{
							"name": "",
							"type": "address"
						}
					],
					"payable": false,
					"stateMutability": "view",
					"type": "function"
				},
				{
					"constant": true,
					"inputs": [],
					"name": "minimumBet",
					"outputs": [
						{
							"name": "",
							"type": "uint256"
						}
					],
					"payable": false,
					"stateMutability": "view",
					"type": "function"
				},
				{
					"constant": true,
					"inputs": [],
					"name": "maxAmountOfBets",
					"outputs": [
						{
							"name": "",
							"type": "uint256"
						}
					],
					"payable": false,
					"stateMutability": "view",
					"type": "function"
				},
				{
					"constant": true,
					"inputs": [
						{
							"name": "",
							"type": "uint256"
						}
					],
					"name": "players",
					"outputs": [
						{
							"name": "",
							"type": "address"
						}
					],
					"payable": false,
					"stateMutability": "view",
					"type": "function"
				},
				{
					"constant": true,
					"inputs": [],
					"name": "totalBet",
					"outputs": [
						{
							"name": "",
							"type": "uint256"
						}
					],
					"payable": false,
					"stateMutability": "view",
					"type": "function"
				},
				{
					"inputs": [
						{
							"name": "_minimumBet",
							"type": "uint256"
						}
					],
					"payable": false,
					"stateMutability": "nonpayable",
					"type": "constructor"
				},
				{
					"payable": true,
					"stateMutability": "payable",
					"type": "fallback"
				}
			],
			"devdoc": {
				"methods": {}
			},
			"evm": {
				"assembly": "    /* \"casiono.sol\":25:2608  contract Casino {\r... */\n  mstore(0x40, 0x60)\n    /* \"casiono.sol\":199:202  100 */\n  0x64\n    /* \"casiono.sol\":166:202  uint256 public maxAmountOfBets = 100 */\n  0x4\n  sstore\n    /* \"casiono.sol\":461:594  function Casino(uint256 _minimumBet) public {\r... */\n  jumpi(tag_1, iszero(callvalue))\n  0x0\n  dup1\n  revert\ntag_1:\n  mload(0x40)\n  0x20\n  dup1\n  bytecodeSize\n  dup4\n  codecopy\n  dup2\n  add\n  0x40\n  mstore\n  dup1\n  dup1\n  mload\n  swap1\n  0x20\n  add\n  swap1\n  swap2\n  swap1\n  pop\n  pop\n    /* \"casiono.sol\":522:532  msg.sender */\n  caller\n    /* \"casiono.sol\":514:519  owner */\n  0x0\n  dup1\n    /* \"casiono.sol\":514:532  owner = msg.sender */\n  0x100\n  exp\n  dup2\n  sload\n  dup2\n  0xffffffffffffffffffffffffffffffffffffffff\n  mul\n  not\n  and\n  swap1\n  dup4\n  0xffffffffffffffffffffffffffffffffffffffff\n  and\n  mul\n  or\n  swap1\n  sstore\n  pop\n    /* \"casiono.sol\":559:560  0 */\n  0x0\n    /* \"casiono.sol\":544:555  _minimumBet */\n  dup2\n    /* \"casiono.sol\":544:560  _minimumBet != 0 */\n  eq\n  iszero\n    /* \"casiono.sol\":541:587  if(_minimumBet != 0 ) minimumBet = _minimumBet */\n  iszero\n  tag_4\n  jumpi\n    /* \"casiono.sol\":576:587  _minimumBet */\n  dup1\n    /* \"casiono.sol\":563:573  minimumBet */\n  0x1\n    /* \"casiono.sol\":563:587  minimumBet = _minimumBet */\n  dup2\n  swap1\n  sstore\n  pop\n    /* \"casiono.sol\":541:587  if(_minimumBet != 0 ) minimumBet = _minimumBet */\ntag_4:\n    /* \"casiono.sol\":461:594  function Casino(uint256 _minimumBet) public {\r... */\n  pop\n    /* \"casiono.sol\":25:2608  contract Casino {\r... */\n  dataSize(sub_0)\n  dup1\n  dataOffset(sub_0)\n  0x0\n  codecopy\n  0x0\n  return\nstop\n\nsub_0: assembly {\n        /* \"casiono.sol\":25:2608  contract Casino {\r... */\n      mstore(0x40, 0x60)\n      jumpi(tag_1, lt(calldatasize, 0x4))\n      calldataload(0x0)\n      0x100000000000000000000000000000000000000000000000000000000\n      swap1\n      div\n      0xffffffff\n      and\n      dup1\n      0xa50e361\n      eq\n      tag_2\n      jumpi\n      dup1\n      0x2ca8c6d3\n      eq\n      tag_3\n      jumpi\n      dup1\n      0x4081d916\n      eq\n      tag_4\n      jumpi\n      dup1\n      0x41c0e1b5\n      eq\n      tag_5\n      jumpi\n      dup1\n      0x4b114691\n      eq\n      tag_6\n      jumpi\n      dup1\n      0x6ca3fc3b\n      eq\n      tag_7\n      jumpi\n      dup1\n      0x7365870b\n      eq\n      tag_8\n      jumpi\n      dup1\n      0x8da5cb5b\n      eq\n      tag_9\n      jumpi\n      dup1\n      0xc38a8afd\n      eq\n      tag_10\n      jumpi\n      dup1\n      0xe08a96cd\n      eq\n      tag_11\n      jumpi\n      dup1\n      0xf71d96cb\n      eq\n      tag_12\n      jumpi\n      dup1\n      0xfe5e1853\n      eq\n      tag_13\n      jumpi\n    tag_1:\n      stop\n        /* \"casiono.sol\":1442:1607  function generateNumberWinner() public {\r... */\n    tag_2:\n      jumpi(tag_16, iszero(callvalue))\n      0x0\n      dup1\n      revert\n    tag_16:\n      tag_17\n      jump(tag_18)\n    tag_17:\n      stop\n        /* \"casiono.sol\":133:160  uint256 public numberOfBets */\n    tag_3:\n      jumpi(tag_19, iszero(callvalue))\n      0x0\n      dup1\n      revert\n    tag_19:\n      tag_20\n      jump(tag_21)\n    tag_20:\n      mload(0x40)\n      dup1\n      dup3\n      dup2\n      mstore\n      0x20\n      add\n      swap2\n      pop\n      pop\n      mload(0x40)\n      dup1\n      swap2\n      sub\n      swap1\n      return\n        /* \"casiono.sol\":686:895  function checkPlayerExists(address player) public constant returns(bool){\r... */\n    tag_4:\n      jumpi(tag_22, iszero(callvalue))\n      0x0\n      dup1\n      revert\n    tag_22:\n      tag_23\n      0x4\n      dup1\n      dup1\n      calldataload\n      0xffffffffffffffffffffffffffffffffffffffff\n      and\n      swap1\n      0x20\n      add\n      swap1\n      swap2\n      swap1\n      pop\n      pop\n      jump(tag_24)\n    tag_23:\n      mload(0x40)\n      dup1\n      dup3\n      iszero\n      iszero\n      iszero\n      iszero\n      dup2\n      mstore\n      0x20\n      add\n      swap2\n      pop\n      pop\n      mload(0x40)\n      dup1\n      swap2\n      sub\n      swap1\n      return\n        /* \"casiono.sol\":599:681  function kill() public {\r... */\n    tag_5:\n      jumpi(tag_25, iszero(callvalue))\n      0x0\n      dup1\n      revert\n    tag_25:\n      tag_26\n      jump(tag_27)\n    tag_26:\n      stop\n        /* \"casiono.sol\":378:422  mapping(address => Player) public playerInfo */\n    tag_6:\n      jumpi(tag_28, iszero(callvalue))\n      0x0\n      dup1\n      revert\n    tag_28:\n      tag_29\n      0x4\n      dup1\n      dup1\n      calldataload\n      0xffffffffffffffffffffffffffffffffffffffff\n      and\n      swap1\n      0x20\n      add\n      swap1\n      swap2\n      swap1\n      pop\n      pop\n      jump(tag_30)\n    tag_29:\n      mload(0x40)\n      dup1\n      dup4\n      dup2\n      mstore\n      0x20\n      add\n      dup3\n      dup2\n      mstore\n      0x20\n      add\n      swap3\n      pop\n      pop\n      pop\n      mload(0x40)\n      dup1\n      swap2\n      sub\n      swap1\n      return\n        /* \"casiono.sol\":1692:2605  function distributePrizes(uint256 numberWinner) public {\r... */\n    tag_7:\n      jumpi(tag_31, iszero(callvalue))\n      0x0\n      dup1\n      revert\n    tag_31:\n      tag_32\n      0x4\n      dup1\n      dup1\n      calldataload\n      swap1\n      0x20\n      add\n      swap1\n      swap2\n      swap1\n      pop\n      pop\n      jump(tag_33)\n    tag_32:\n      stop\n        /* \"casiono.sol\":959:1370  function bet(uint256 numberSelected) public payable {\r... */\n    tag_8:\n      tag_34\n      0x4\n      dup1\n      dup1\n      calldataload\n      swap1\n      0x20\n      add\n      swap1\n      swap2\n      swap1\n      pop\n      pop\n      jump(tag_35)\n    tag_34:\n      stop\n        /* \"casiono.sol\":47:67  address public owner */\n    tag_9:\n      jumpi(tag_36, iszero(callvalue))\n      0x0\n      dup1\n      revert\n    tag_36:\n      tag_37\n      jump(tag_38)\n    tag_37:\n      mload(0x40)\n      dup1\n      dup3\n      0xffffffffffffffffffffffffffffffffffffffff\n      and\n      0xffffffffffffffffffffffffffffffffffffffff\n      and\n      dup2\n      mstore\n      0x20\n      add\n      swap2\n      pop\n      pop\n      mload(0x40)\n      dup1\n      swap2\n      sub\n      swap1\n      return\n        /* \"casiono.sol\":73:98  uint256 public minimumBet */\n    tag_10:\n      jumpi(tag_39, iszero(callvalue))\n      0x0\n      dup1\n      revert\n    tag_39:\n      tag_40\n      jump(tag_41)\n    tag_40:\n      mload(0x40)\n      dup1\n      dup3\n      dup2\n      mstore\n      0x20\n      add\n      swap2\n      pop\n      pop\n      mload(0x40)\n      dup1\n      swap2\n      sub\n      swap1\n      return\n        /* \"casiono.sol\":166:202  uint256 public maxAmountOfBets = 100 */\n    tag_11:\n      jumpi(tag_42, iszero(callvalue))\n      0x0\n      dup1\n      revert\n    tag_42:\n      tag_43\n      jump(tag_44)\n    tag_43:\n      mload(0x40)\n      dup1\n      dup3\n      dup2\n      mstore\n      0x20\n      add\n      swap2\n      pop\n      pop\n      mload(0x40)\n      dup1\n      swap2\n      sub\n      swap1\n      return\n        /* \"casiono.sol\":208:232  address[] public players */\n    tag_12:\n      jumpi(tag_45, iszero(callvalue))\n      0x0\n      dup1\n      revert\n    tag_45:\n      tag_46\n      0x4\n      dup1\n      dup1\n      calldataload\n      swap1\n      0x20\n      add\n      swap1\n      swap2\n      swap1\n      pop\n      pop\n      jump(tag_47)\n    tag_46:\n      mload(0x40)\n      dup1\n      dup3\n      0xffffffffffffffffffffffffffffffffffffffff\n      and\n      0xffffffffffffffffffffffffffffffffffffffff\n      and\n      dup2\n      mstore\n      0x20\n      add\n      swap2\n      pop\n      pop\n      mload(0x40)\n      dup1\n      swap2\n      sub\n      swap1\n      return\n        /* \"casiono.sol\":104:127  uint256 public totalBet */\n    tag_13:\n      jumpi(tag_48, iszero(callvalue))\n      0x0\n      dup1\n      revert\n    tag_48:\n      tag_49\n      jump(tag_50)\n    tag_49:\n      mload(0x40)\n      dup1\n      dup3\n      dup2\n      mstore\n      0x20\n      add\n      swap2\n      pop\n      pop\n      mload(0x40)\n      dup1\n      swap2\n      sub\n      swap1\n      return\n        /* \"casiono.sol\":1442:1607  function generateNumberWinner() public {\r... */\n    tag_18:\n        /* \"casiono.sol\":1490:1513  uint256 numberGenerated */\n      0x0\n        /* \"casiono.sol\":1536:1537  1 */\n      0x1\n        /* \"casiono.sol\":1531:1533  10 */\n      0xa\n        /* \"casiono.sol\":1516:1528  block.number */\n      number\n        /* \"casiono.sol\":1516:1533  block.number % 10 */\n      dup2\n      iszero\n      iszero\n      tag_52\n      jumpi\n      invalid\n    tag_52:\n      mod\n        /* \"casiono.sol\":1516:1537  block.number % 10 + 1 */\n      add\n        /* \"casiono.sol\":1490:1537  uint256 numberGenerated = block.number % 10 + 1 */\n      swap1\n      pop\n        /* \"casiono.sol\":1567:1600  distributePrizes(numberGenerated) */\n      tag_53\n        /* \"casiono.sol\":1584:1599  numberGenerated */\n      dup2\n        /* \"casiono.sol\":1567:1583  distributePrizes */\n      tag_33\n        /* \"casiono.sol\":1567:1600  distributePrizes(numberGenerated) */\n      jump\t// in\n    tag_53:\n        /* \"casiono.sol\":1442:1607  function generateNumberWinner() public {\r... */\n      pop\n      jump\t// out\n        /* \"casiono.sol\":133:160  uint256 public numberOfBets */\n    tag_21:\n      sload(0x3)\n      dup2\n      jump\t// out\n        /* \"casiono.sol\":686:895  function checkPlayerExists(address player) public constant returns(bool){\r... */\n    tag_24:\n        /* \"casiono.sol\":753:757  bool */\n      0x0\n        /* \"casiono.sol\":771:780  uint256 i */\n      dup1\n        /* \"casiono.sol\":783:784  0 */\n      0x0\n        /* \"casiono.sol\":771:784  uint256 i = 0 */\n      swap1\n      pop\n        /* \"casiono.sol\":767:868  for(uint256 i = 0; i < players.length; i++){\r... */\n    tag_55:\n        /* \"casiono.sol\":790:797  players */\n      0x5\n        /* \"casiono.sol\":790:804  players.length */\n      dup1\n      sload\n      swap1\n      pop\n        /* \"casiono.sol\":786:787  i */\n      dup2\n        /* \"casiono.sol\":786:804  i < players.length */\n      lt\n        /* \"casiono.sol\":767:868  for(uint256 i = 0; i < players.length; i++){\r... */\n      iszero\n      tag_56\n      jumpi\n        /* \"casiono.sol\":839:845  player */\n      dup3\n        /* \"casiono.sol\":825:845  players[i] == player */\n      0xffffffffffffffffffffffffffffffffffffffff\n      and\n        /* \"casiono.sol\":825:832  players */\n      0x5\n        /* \"casiono.sol\":833:834  i */\n      dup3\n        /* \"casiono.sol\":825:835  players[i] */\n      dup2\n      sload\n      dup2\n      lt\n      iszero\n      iszero\n      tag_58\n      jumpi\n      invalid\n    tag_58:\n      swap1\n      0x0\n      mstore\n      keccak256(0x0, 0x20)\n      swap1\n      add\n      0x0\n      swap1\n      sload\n      swap1\n      0x100\n      exp\n      swap1\n      div\n      0xffffffffffffffffffffffffffffffffffffffff\n      and\n        /* \"casiono.sol\":825:845  players[i] == player */\n      0xffffffffffffffffffffffffffffffffffffffff\n      and\n      eq\n        /* \"casiono.sol\":822:858  if(players[i] == player) return true */\n      iszero\n      tag_60\n      jumpi\n        /* \"casiono.sol\":854:858  true */\n      0x1\n        /* \"casiono.sol\":847:858  return true */\n      swap2\n      pop\n      jump(tag_54)\n        /* \"casiono.sol\":822:858  if(players[i] == player) return true */\n    tag_60:\n        /* \"casiono.sol\":806:809  i++ */\n      dup1\n      dup1\n      0x1\n      add\n      swap2\n      pop\n      pop\n        /* \"casiono.sol\":767:868  for(uint256 i = 0; i < players.length; i++){\r... */\n      jump(tag_55)\n    tag_56:\n        /* \"casiono.sol\":883:888  false */\n      0x0\n        /* \"casiono.sol\":876:888  return false */\n      swap2\n      pop\n        /* \"casiono.sol\":686:895  function checkPlayerExists(address player) public constant returns(bool){\r... */\n    tag_54:\n      pop\n      swap2\n      swap1\n      pop\n      jump\t// out\n        /* \"casiono.sol\":599:681  function kill() public {\r... */\n    tag_27:\n        /* \"casiono.sol\":648:653  owner */\n      0x0\n      dup1\n      swap1\n      sload\n      swap1\n      0x100\n      exp\n      swap1\n      div\n      0xffffffffffffffffffffffffffffffffffffffff\n      and\n        /* \"casiono.sol\":634:653  msg.sender == owner */\n      0xffffffffffffffffffffffffffffffffffffffff\n      and\n        /* \"casiono.sol\":634:644  msg.sender */\n      caller\n        /* \"casiono.sol\":634:653  msg.sender == owner */\n      0xffffffffffffffffffffffffffffffffffffffff\n      and\n      eq\n        /* \"casiono.sol\":631:674  if(msg.sender == owner) selfdestruct(owner) */\n      iszero\n      tag_62\n      jumpi\n        /* \"casiono.sol\":668:673  owner */\n      0x0\n      dup1\n      swap1\n      sload\n      swap1\n      0x100\n      exp\n      swap1\n      div\n      0xffffffffffffffffffffffffffffffffffffffff\n      and\n        /* \"casiono.sol\":655:674  selfdestruct(owner) */\n      0xffffffffffffffffffffffffffffffffffffffff\n      and\n      selfdestruct\n        /* \"casiono.sol\":631:674  if(msg.sender == owner) selfdestruct(owner) */\n    tag_62:\n        /* \"casiono.sol\":599:681  function kill() public {\r... */\n      jump\t// out\n        /* \"casiono.sol\":378:422  mapping(address => Player) public playerInfo */\n    tag_30:\n      mstore(0x20, 0x6)\n      dup1\n      0x0\n      mstore\n      keccak256(0x0, 0x40)\n      0x0\n      swap2\n      pop\n      swap1\n      pop\n      dup1\n      0x0\n      add\n      sload\n      swap1\n      dup1\n      0x1\n      add\n      sload\n      swap1\n      pop\n      dup3\n      jump\t// out\n        /* \"casiono.sol\":1692:2605  function distributePrizes(uint256 numberWinner) public {\r... */\n    tag_33:\n        /* \"casiono.sol\":1756:1783  address[100] memory winners */\n      tag_63\n      jump\t// in(tag_64)\n    tag_63:\n        /* \"casiono.sol\":1857:1870  uint256 count */\n      0x0\n        /* \"casiono.sol\":1933:1942  uint256 i */\n      dup1\n        /* \"casiono.sol\":1984:2005  address playerAddress */\n      0x0\n        /* \"casiono.sol\":2316:2341  uint256 winnerEtherAmount */\n      dup1\n        /* \"casiono.sol\":2411:2420  uint256 j */\n      0x0\n        /* \"casiono.sol\":1873:1874  0 */\n      dup1\n        /* \"casiono.sol\":1857:1874  uint256 count = 0 */\n      swap5\n      pop\n        /* \"casiono.sol\":1945:1946  0 */\n      0x0\n        /* \"casiono.sol\":1933:1946  uint256 i = 0 */\n      swap4\n      pop\n        /* \"casiono.sol\":1929:2249  for(uint256 i = 0; i < players.length; i++){\r... */\n    tag_66:\n        /* \"casiono.sol\":1952:1959  players */\n      0x5\n        /* \"casiono.sol\":1952:1966  players.length */\n      dup1\n      sload\n      swap1\n      pop\n        /* \"casiono.sol\":1948:1949  i */\n      dup5\n        /* \"casiono.sol\":1948:1966  i < players.length */\n      lt\n        /* \"casiono.sol\":1929:2249  for(uint256 i = 0; i < players.length; i++){\r... */\n      iszero\n      tag_67\n      jumpi\n        /* \"casiono.sol\":2008:2015  players */\n      0x5\n        /* \"casiono.sol\":2016:2017  i */\n      dup5\n        /* \"casiono.sol\":2008:2018  players[i] */\n      dup2\n      sload\n      dup2\n      lt\n      iszero\n      iszero\n      tag_69\n      jumpi\n      invalid\n    tag_69:\n      swap1\n      0x0\n      mstore\n      keccak256(0x0, 0x20)\n      swap1\n      add\n      0x0\n      swap1\n      sload\n      swap1\n      0x100\n      exp\n      swap1\n      div\n      0xffffffffffffffffffffffffffffffffffffffff\n      and\n        /* \"casiono.sol\":1984:2018  address playerAddress = players[i] */\n      swap3\n      pop\n        /* \"casiono.sol\":2077:2089  numberWinner */\n      dup7\n        /* \"casiono.sol\":2033:2043  playerInfo */\n      0x6\n        /* \"casiono.sol\":2033:2058  playerInfo[playerAddress] */\n      0x0\n        /* \"casiono.sol\":2044:2057  playerAddress */\n      dup6\n        /* \"casiono.sol\":2033:2058  playerInfo[playerAddress] */\n      0xffffffffffffffffffffffffffffffffffffffff\n      and\n      0xffffffffffffffffffffffffffffffffffffffff\n      and\n      dup2\n      mstore\n      0x20\n      add\n      swap1\n      dup2\n      mstore\n      0x20\n      add\n      0x0\n      keccak256\n        /* \"casiono.sol\":2033:2073  playerInfo[playerAddress].numberSelected */\n      0x1\n      add\n      sload\n        /* \"casiono.sol\":2033:2089  playerInfo[playerAddress].numberSelected == numberWinner */\n      eq\n        /* \"casiono.sol\":2030:2170  if(playerInfo[playerAddress].numberSelected == numberWinner){\r... */\n      iszero\n      tag_71\n      jumpi\n        /* \"casiono.sol\":2122:2135  playerAddress */\n      dup3\n        /* \"casiono.sol\":2105:2112  winners */\n      dup7\n        /* \"casiono.sol\":2113:2118  count */\n      dup7\n        /* \"casiono.sol\":2105:2119  winners[count] */\n      0x64\n      dup2\n      lt\n      iszero\n      iszero\n      tag_72\n      jumpi\n      invalid\n    tag_72:\n      0x20\n      mul\n      add\n        /* \"casiono.sol\":2105:2135  winners[count] = playerAddress */\n      swap1\n      0xffffffffffffffffffffffffffffffffffffffff\n      and\n      swap1\n      dup2\n      0xffffffffffffffffffffffffffffffffffffffff\n      and\n      dup2\n      mstore\n      pop\n      pop\n        /* \"casiono.sol\":2150:2157  count++ */\n      dup5\n      dup1\n      0x1\n      add\n      swap6\n      pop\n      pop\n        /* \"casiono.sol\":2030:2170  if(playerInfo[playerAddress].numberSelected == numberWinner){\r... */\n    tag_71:\n        /* \"casiono.sol\":2188:2198  playerInfo */\n      0x6\n        /* \"casiono.sol\":2188:2213  playerInfo[playerAddress] */\n      0x0\n        /* \"casiono.sol\":2199:2212  playerAddress */\n      dup5\n        /* \"casiono.sol\":2188:2213  playerInfo[playerAddress] */\n      0xffffffffffffffffffffffffffffffffffffffff\n      and\n      0xffffffffffffffffffffffffffffffffffffffff\n      and\n      dup2\n      mstore\n      0x20\n      add\n      swap1\n      dup2\n      mstore\n      0x20\n      add\n      0x0\n      keccak256\n      0x0\n        /* \"casiono.sol\":2181:2213  delete playerInfo[playerAddress] */\n      dup1\n      dup3\n      add\n      0x0\n      swap1\n      sstore\n      0x1\n      dup3\n      add\n      0x0\n      swap1\n      sstore\n      pop\n      pop\n        /* \"casiono.sol\":1968:1971  i++ */\n      dup4\n      dup1\n      0x1\n      add\n      swap5\n      pop\n      pop\n        /* \"casiono.sol\":1929:2249  for(uint256 i = 0; i < players.length; i++){\r... */\n      jump(tag_66)\n    tag_67:\n        /* \"casiono.sol\":2274:2275  0 */\n      0x0\n        /* \"casiono.sol\":2257:2264  players */\n      0x5\n        /* \"casiono.sol\":2257:2275  players.length = 0 */\n      dup2\n      tag_73\n      swap2\n      swap1\n      jump\t// in(tag_74)\n    tag_73:\n      pop\n        /* \"casiono.sol\":2355:2369  winners.length */\n      0x64\n        /* \"casiono.sol\":2344:2352  totalBet */\n      sload(0x2)\n        /* \"casiono.sol\":2344:2369  totalBet / winners.length */\n      dup2\n      iszero\n      iszero\n      tag_75\n      jumpi\n      invalid\n    tag_75:\n      div\n        /* \"casiono.sol\":2316:2369  uint256 winnerEtherAmount = totalBet / winners.length */\n      swap2\n      pop\n        /* \"casiono.sol\":2423:2424  0 */\n      0x0\n        /* \"casiono.sol\":2411:2424  uint256 j = 0 */\n      swap1\n      pop\n        /* \"casiono.sol\":2407:2599  for(uint256 j = 0; j < count; j++){\r... */\n    tag_76:\n        /* \"casiono.sol\":2430:2435  count */\n      dup5\n        /* \"casiono.sol\":2426:2427  j */\n      dup2\n        /* \"casiono.sol\":2426:2435  j < count */\n      lt\n        /* \"casiono.sol\":2407:2599  for(uint256 j = 0; j < count; j++){\r... */\n      iszero\n      tag_77\n      jumpi\n        /* \"casiono.sol\":2478:2479  0 */\n      0x0\n        /* \"casiono.sol\":2456:2480  winners[j] != address(0) */\n      0xffffffffffffffffffffffffffffffffffffffff\n      and\n        /* \"casiono.sol\":2456:2463  winners */\n      dup7\n        /* \"casiono.sol\":2464:2465  j */\n      dup3\n        /* \"casiono.sol\":2456:2466  winners[j] */\n      0x64\n      dup2\n      lt\n      iszero\n      iszero\n      tag_79\n      jumpi\n      invalid\n    tag_79:\n      0x20\n      mul\n      add\n      mload\n        /* \"casiono.sol\":2456:2480  winners[j] != address(0) */\n      0xffffffffffffffffffffffffffffffffffffffff\n      and\n      eq\n      iszero\n        /* \"casiono.sol\":2453:2589  if(winners[j] != address(0)) // Check that the address in this fixed array is not empty\r... */\n      iszero\n      tag_80\n      jumpi\n        /* \"casiono.sol\":2551:2558  winners */\n      dup6\n        /* \"casiono.sol\":2559:2560  j */\n      dup2\n        /* \"casiono.sol\":2551:2561  winners[j] */\n      0x64\n      dup2\n      lt\n      iszero\n      iszero\n      tag_81\n      jumpi\n      invalid\n    tag_81:\n      0x20\n      mul\n      add\n      mload\n        /* \"casiono.sol\":2551:2570  winners[j].transfer */\n      0xffffffffffffffffffffffffffffffffffffffff\n      and\n        /* \"casiono.sol\":2551:2589  winners[j].transfer(winnerEtherAmount) */\n      0x8fc\n        /* \"casiono.sol\":2571:2588  winnerEtherAmount */\n      dup4\n        /* \"casiono.sol\":2551:2589  winners[j].transfer(winnerEtherAmount) */\n      swap1\n      dup2\n      iszero\n      mul\n      swap1\n      mload(0x40)\n      0x0\n      mload(0x40)\n      dup1\n      dup4\n      sub\n      dup2\n      dup6\n      dup9\n      dup9\n      call\n      swap4\n      pop\n      pop\n      pop\n      pop\n      iszero\n      iszero\n      tag_82\n      jumpi\n      0x0\n      dup1\n      revert\n    tag_82:\n        /* \"casiono.sol\":2453:2589  if(winners[j] != address(0)) // Check that the address in this fixed array is not empty\r... */\n    tag_80:\n        /* \"casiono.sol\":2437:2440  j++ */\n      dup1\n      dup1\n      0x1\n      add\n      swap2\n      pop\n      pop\n        /* \"casiono.sol\":2407:2599  for(uint256 j = 0; j < count; j++){\r... */\n      jump(tag_76)\n    tag_77:\n        /* \"casiono.sol\":1692:2605  function distributePrizes(uint256 numberWinner) public {\r... */\n      pop\n      pop\n      pop\n      pop\n      pop\n      pop\n      pop\n      jump\t// out\n        /* \"casiono.sol\":959:1370  function bet(uint256 numberSelected) public payable {\r... */\n    tag_35:\n        /* \"casiono.sol\":1029:1058  checkPlayerExists(msg.sender) */\n      tag_84\n        /* \"casiono.sol\":1047:1057  msg.sender */\n      caller\n        /* \"casiono.sol\":1029:1046  checkPlayerExists */\n      tag_24\n        /* \"casiono.sol\":1029:1058  checkPlayerExists(msg.sender) */\n      jump\t// in\n    tag_84:\n        /* \"casiono.sol\":1028:1058  !checkPlayerExists(msg.sender) */\n      iszero\n        /* \"casiono.sol\":1020:1059  require(!checkPlayerExists(msg.sender)) */\n      iszero\n      iszero\n      tag_85\n      jumpi\n      0x0\n      dup1\n      revert\n    tag_85:\n        /* \"casiono.sol\":1094:1095  1 */\n      0x1\n        /* \"casiono.sol\":1076:1090  numberSelected */\n      dup2\n        /* \"casiono.sol\":1076:1095  numberSelected >= 1 */\n      lt\n      iszero\n        /* \"casiono.sol\":1076:1119  numberSelected >= 1 && numberSelected <= 10 */\n      dup1\n      iszero\n      tag_86\n      jumpi\n      pop\n        /* \"casiono.sol\":1117:1119  10 */\n      0xa\n        /* \"casiono.sol\":1099:1113  numberSelected */\n      dup2\n        /* \"casiono.sol\":1099:1119  numberSelected <= 10 */\n      gt\n      iszero\n        /* \"casiono.sol\":1076:1119  numberSelected >= 1 && numberSelected <= 10 */\n    tag_86:\n        /* \"casiono.sol\":1068:1120  require(numberSelected >= 1 && numberSelected <= 10) */\n      iszero\n      iszero\n      tag_87\n      jumpi\n      0x0\n      dup1\n      revert\n    tag_87:\n        /* \"casiono.sol\":1150:1160  minimumBet */\n      sload(0x1)\n        /* \"casiono.sol\":1137:1146  msg.value */\n      callvalue\n        /* \"casiono.sol\":1137:1160  msg.value >= minimumBet */\n      lt\n      iszero\n        /* \"casiono.sol\":1129:1161  require(msg.value >= minimumBet) */\n      iszero\n      iszero\n      tag_88\n      jumpi\n      0x0\n      dup1\n      revert\n    tag_88:\n        /* \"casiono.sol\":1205:1214  msg.value */\n      callvalue\n        /* \"casiono.sol\":1170:1180  playerInfo */\n      0x6\n        /* \"casiono.sol\":1170:1192  playerInfo[msg.sender] */\n      0x0\n        /* \"casiono.sol\":1181:1191  msg.sender */\n      caller\n        /* \"casiono.sol\":1170:1192  playerInfo[msg.sender] */\n      0xffffffffffffffffffffffffffffffffffffffff\n      and\n      0xffffffffffffffffffffffffffffffffffffffff\n      and\n      dup2\n      mstore\n      0x20\n      add\n      swap1\n      dup2\n      mstore\n      0x20\n      add\n      0x0\n      keccak256\n        /* \"casiono.sol\":1170:1202  playerInfo[msg.sender].amountBet */\n      0x0\n      add\n        /* \"casiono.sol\":1170:1214  playerInfo[msg.sender].amountBet = msg.value */\n      dup2\n      swap1\n      sstore\n      pop\n        /* \"casiono.sol\":1263:1277  numberSelected */\n      dup1\n        /* \"casiono.sol\":1223:1233  playerInfo */\n      0x6\n        /* \"casiono.sol\":1223:1245  playerInfo[msg.sender] */\n      0x0\n        /* \"casiono.sol\":1234:1244  msg.sender */\n      caller\n        /* \"casiono.sol\":1223:1245  playerInfo[msg.sender] */\n      0xffffffffffffffffffffffffffffffffffffffff\n      and\n      0xffffffffffffffffffffffffffffffffffffffff\n      and\n      dup2\n      mstore\n      0x20\n      add\n      swap1\n      dup2\n      mstore\n      0x20\n      add\n      0x0\n      keccak256\n        /* \"casiono.sol\":1223:1260  playerInfo[msg.sender].numberSelected */\n      0x1\n      add\n        /* \"casiono.sol\":1223:1277  playerInfo[msg.sender].numberSelected = numberSelected */\n      dup2\n      swap1\n      sstore\n      pop\n        /* \"casiono.sol\":1286:1298  numberOfBets */\n      0x3\n      0x0\n        /* \"casiono.sol\":1286:1300  numberOfBets++ */\n      dup2\n      sload\n      dup1\n      swap3\n      swap2\n      swap1\n      0x1\n      add\n      swap2\n      swap1\n      pop\n      sstore\n      pop\n        /* \"casiono.sol\":1309:1316  players */\n      0x5\n        /* \"casiono.sol\":1309:1333  players.push(msg.sender) */\n      dup1\n      sload\n      dup1\n      0x1\n      add\n      dup3\n      dup2\n      tag_89\n      swap2\n      swap1\n      jump\t// in(tag_90)\n    tag_89:\n      swap2\n      0x0\n      mstore\n      keccak256(0x0, 0x20)\n      swap1\n      add\n      0x0\n        /* \"casiono.sol\":1322:1332  msg.sender */\n      caller\n        /* \"casiono.sol\":1309:1333  players.push(msg.sender) */\n      swap1\n      swap2\n      swap1\n      swap2\n      0x100\n      exp\n      dup2\n      sload\n      dup2\n      0xffffffffffffffffffffffffffffffffffffffff\n      mul\n      not\n      and\n      swap1\n      dup4\n      0xffffffffffffffffffffffffffffffffffffffff\n      and\n      mul\n      or\n      swap1\n      sstore\n      pop\n      pop\n        /* \"casiono.sol\":1354:1363  msg.value */\n      callvalue\n        /* \"casiono.sol\":1342:1350  totalBet */\n      0x2\n      0x0\n        /* \"casiono.sol\":1342:1363  totalBet += msg.value */\n      dup3\n      dup3\n      sload\n      add\n      swap3\n      pop\n      pop\n      dup2\n      swap1\n      sstore\n      pop\n        /* \"casiono.sol\":959:1370  function bet(uint256 numberSelected) public payable {\r... */\n      pop\n      jump\t// out\n        /* \"casiono.sol\":47:67  address public owner */\n    tag_38:\n      0x0\n      dup1\n      swap1\n      sload\n      swap1\n      0x100\n      exp\n      swap1\n      div\n      0xffffffffffffffffffffffffffffffffffffffff\n      and\n      dup2\n      jump\t// out\n        /* \"casiono.sol\":73:98  uint256 public minimumBet */\n    tag_41:\n      sload(0x1)\n      dup2\n      jump\t// out\n        /* \"casiono.sol\":166:202  uint256 public maxAmountOfBets = 100 */\n    tag_44:\n      sload(0x4)\n      dup2\n      jump\t// out\n        /* \"casiono.sol\":208:232  address[] public players */\n    tag_47:\n      0x5\n      dup2\n      dup2\n      sload\n      dup2\n      lt\n      iszero\n      iszero\n      tag_92\n      jumpi\n      invalid\n    tag_92:\n      swap1\n      0x0\n      mstore\n      keccak256(0x0, 0x20)\n      swap1\n      add\n      0x0\n      swap2\n      pop\n      sload\n      swap1\n      0x100\n      exp\n      swap1\n      div\n      0xffffffffffffffffffffffffffffffffffffffff\n      and\n      dup2\n      jump\t// out\n        /* \"casiono.sol\":104:127  uint256 public totalBet */\n    tag_50:\n      sload(0x2)\n      dup2\n      jump\t// out\n        /* \"casiono.sol\":25:2608  contract Casino {\r... */\n    tag_64:\n      0xc80\n      mload(0x40)\n      swap1\n      dup2\n      add\n      0x40\n      mstore\n      dup1\n      0x64\n      swap1\n    tag_94:\n      and(0xffffffffffffffffffffffffffffffffffffffff, 0x0)\n      dup2\n      mstore\n      0x20\n      add\n      swap1\n      0x1\n      swap1\n      sub\n      swap1\n      dup2\n      tag_94\n      jumpi\n      swap1\n      pop\n      pop\n      swap1\n      jump\t// out\n    tag_74:\n      dup2\n      sload\n      dup2\n      dup4\n      sstore\n      dup2\n      dup2\n      iszero\n      gt\n      tag_95\n      jumpi\n      dup2\n      dup4\n      0x0\n      mstore\n      keccak256(0x0, 0x20)\n      swap2\n      dup3\n      add\n      swap2\n      add\n      tag_96\n      swap2\n      swap1\n      jump\t// in(tag_97)\n    tag_96:\n    tag_95:\n      pop\n      pop\n      pop\n      jump\t// out\n    tag_90:\n      dup2\n      sload\n      dup2\n      dup4\n      sstore\n      dup2\n      dup2\n      iszero\n      gt\n      tag_98\n      jumpi\n      dup2\n      dup4\n      0x0\n      mstore\n      keccak256(0x0, 0x20)\n      swap2\n      dup3\n      add\n      swap2\n      add\n      tag_99\n      swap2\n      swap1\n      jump\t// in(tag_97)\n    tag_99:\n    tag_98:\n      pop\n      pop\n      pop\n      jump\t// out\n    tag_97:\n      tag_100\n      swap2\n      swap1\n    tag_101:\n      dup1\n      dup3\n      gt\n      iszero\n      tag_102\n      jumpi\n      0x0\n      dup2\n      0x0\n      swap1\n      sstore\n      pop\n      0x1\n      add\n      jump(tag_101)\n    tag_102:\n      pop\n      swap1\n      jump\n    tag_100:\n      swap1\n      jump\t// out\n\n    auxdata: 0xa165627a7a72305820921bad77f98150e1e9a21e80baa026c3a7441b36faed74570cf909f1ae674b380029\n}\n",
				"bytecode": {
					"linkReferences": {},
					"object": "60606040526064600455341561001457600080fd5b604051602080610a2383398101604052808051906020019091905050336000806101000a81548173ffffffffffffffffffffffffffffffffffffffff021916908373ffffffffffffffffffffffffffffffffffffffff16021790555060008114151561008257806001819055505b50610991806100926000396000f3006060604052600436106100ba576000357c0100000000000000000000000000000000000000000000000000000000900463ffffffff1680630a50e361146100bc5780632ca8c6d3146100d15780634081d916146100fa57806341c0e1b51461014b5780634b114691146101605780636ca3fc3b146101b45780637365870b146101d75780638da5cb5b146101ef578063c38a8afd14610244578063e08a96cd1461026d578063f71d96cb14610296578063fe5e1853146102f9575b005b34156100c757600080fd5b6100cf610322565b005b34156100dc57600080fd5b6100e4610342565b6040518082815260200191505060405180910390f35b341561010557600080fd5b610131600480803573ffffffffffffffffffffffffffffffffffffffff16906020019091905050610348565b604051808215151515815260200191505060405180910390f35b341561015657600080fd5b61015e6103ec565b005b341561016b57600080fd5b610197600480803573ffffffffffffffffffffffffffffffffffffffff1690602001909190505061047d565b604051808381526020018281526020019250505060405180910390f35b34156101bf57600080fd5b6101d560048080359060200190919050506104a1565b005b6101ed60048080359060200190919050506106da565b005b34156101fa57600080fd5b610202610833565b604051808273ffffffffffffffffffffffffffffffffffffffff1673ffffffffffffffffffffffffffffffffffffffff16815260200191505060405180910390f35b341561024f57600080fd5b610257610858565b6040518082815260200191505060405180910390f35b341561027857600080fd5b61028061085e565b6040518082815260200191505060405180910390f35b34156102a157600080fd5b6102b76004808035906020019091905050610864565b604051808273ffffffffffffffffffffffffffffffffffffffff1673ffffffffffffffffffffffffffffffffffffffff16815260200191505060405180910390f35b341561030457600080fd5b61030c6108a3565b6040518082815260200191505060405180910390f35b60006001600a4381151561033257fe5b0601905061033f816104a1565b50565b60035481565b600080600090505b6005805490508110156103e1578273ffffffffffffffffffffffffffffffffffffffff1660058281548110151561038357fe5b906000526020600020900160009054906101000a900473ffffffffffffffffffffffffffffffffffffffff1673ffffffffffffffffffffffffffffffffffffffff1614156103d457600191506103e6565b8080600101915050610350565b600091505b50919050565b6000809054906101000a900473ffffffffffffffffffffffffffffffffffffffff1673ffffffffffffffffffffffffffffffffffffffff163373ffffffffffffffffffffffffffffffffffffffff16141561047b576000809054906101000a900473ffffffffffffffffffffffffffffffffffffffff1673ffffffffffffffffffffffffffffffffffffffff16ff5b565b60066020528060005260406000206000915090508060000154908060010154905082565b6104a96108a9565b6000806000806000809450600093505b6005805490508410156105fb576005848154811015156104d557fe5b906000526020600020900160009054906101000a900473ffffffffffffffffffffffffffffffffffffffff16925086600660008573ffffffffffffffffffffffffffffffffffffffff1673ffffffffffffffffffffffffffffffffffffffff16815260200190815260200160002060010154141561059c5782868660648110151561055c57fe5b602002019073ffffffffffffffffffffffffffffffffffffffff16908173ffffffffffffffffffffffffffffffffffffffff168152505084806001019550505b600660008473ffffffffffffffffffffffffffffffffffffffff1673ffffffffffffffffffffffffffffffffffffffff1681526020019081526020016000206000808201600090556001820160009055505083806001019450506104b9565b600060058161060a91906108e8565b50606460025481151561061957fe5b049150600090505b848110156106d157600073ffffffffffffffffffffffffffffffffffffffff16868260648110151561064f57fe5b602002015173ffffffffffffffffffffffffffffffffffffffff161415156106c457858160648110151561067f57fe5b602002015173ffffffffffffffffffffffffffffffffffffffff166108fc839081150290604051600060405180830381858888f1935050505015156106c357600080fd5b5b8080600101915050610621565b50505050505050565b6106e333610348565b1515156106ef57600080fd5b600181101580156107015750600a8111155b151561070c57600080fd5b600154341015151561071d57600080fd5b34600660003373ffffffffffffffffffffffffffffffffffffffff1673ffffffffffffffffffffffffffffffffffffffff1681526020019081526020016000206000018190555080600660003373ffffffffffffffffffffffffffffffffffffffff1673ffffffffffffffffffffffffffffffffffffffff16815260200190815260200160002060010181905550600360008154809291906001019190505550600580548060010182816107d19190610914565b9160005260206000209001600033909190916101000a81548173ffffffffffffffffffffffffffffffffffffffff021916908373ffffffffffffffffffffffffffffffffffffffff160217905550503460026000828254019250508190555050565b6000809054906101000a900473ffffffffffffffffffffffffffffffffffffffff1681565b60015481565b60045481565b60058181548110151561087357fe5b90600052602060002090016000915054906101000a900473ffffffffffffffffffffffffffffffffffffffff1681565b60025481565b610c80604051908101604052806064905b600073ffffffffffffffffffffffffffffffffffffffff168152602001906001900390816108ba5790505090565b81548183558181151161090f5781836000526020600020918201910161090e9190610940565b5b505050565b81548183558181151161093b5781836000526020600020918201910161093a9190610940565b5b505050565b61096291905b8082111561095e576000816000905550600101610946565b5090565b905600a165627a7a72305820921bad77f98150e1e9a21e80baa026c3a7441b36faed74570cf909f1ae674b380029",
					"opcodes": "PUSH1 0x60 PUSH1 0x40 MSTORE PUSH1 0x64 PUSH1 0x4 SSTORE CALLVALUE ISZERO PUSH2 0x14 JUMPI PUSH1 0x0 DUP1 REVERT JUMPDEST PUSH1 0x40 MLOAD PUSH1 0x20 DUP1 PUSH2 0xA23 DUP4 CODECOPY DUP2 ADD PUSH1 0x40 MSTORE DUP1 DUP1 MLOAD SWAP1 PUSH1 0x20 ADD SWAP1 SWAP2 SWAP1 POP POP CALLER PUSH1 0x0 DUP1 PUSH2 0x100 EXP DUP2 SLOAD DUP2 PUSH20 0xFFFFFFFFFFFFFFFFFFFFFFFFFFFFFFFFFFFFFFFF MUL NOT AND SWAP1 DUP4 PUSH20 0xFFFFFFFFFFFFFFFFFFFFFFFFFFFFFFFFFFFFFFFF AND MUL OR SWAP1 SSTORE POP PUSH1 0x0 DUP2 EQ ISZERO ISZERO PUSH2 0x82 JUMPI DUP1 PUSH1 0x1 DUP2 SWAP1 SSTORE POP JUMPDEST POP PUSH2 0x991 DUP1 PUSH2 0x92 PUSH1 0x0 CODECOPY PUSH1 0x0 RETURN STOP PUSH1 0x60 PUSH1 0x40 MSTORE PUSH1 0x4 CALLDATASIZE LT PUSH2 0xBA JUMPI PUSH1 0x0 CALLDATALOAD PUSH29 0x100000000000000000000000000000000000000000000000000000000 SWAP1 DIV PUSH4 0xFFFFFFFF AND DUP1 PUSH4 0xA50E361 EQ PUSH2 0xBC JUMPI DUP1 PUSH4 0x2CA8C6D3 EQ PUSH2 0xD1 JUMPI DUP1 PUSH4 0x4081D916 EQ PUSH2 0xFA JUMPI DUP1 PUSH4 0x41C0E1B5 EQ PUSH2 0x14B JUMPI DUP1 PUSH4 0x4B114691 EQ PUSH2 0x160 JUMPI DUP1 PUSH4 0x6CA3FC3B EQ PUSH2 0x1B4 JUMPI DUP1 PUSH4 0x7365870B EQ PUSH2 0x1D7 JUMPI DUP1 PUSH4 0x8DA5CB5B EQ PUSH2 0x1EF JUMPI DUP1 PUSH4 0xC38A8AFD EQ PUSH2 0x244 JUMPI DUP1 PUSH4 0xE08A96CD EQ PUSH2 0x26D JUMPI DUP1 PUSH4 0xF71D96CB EQ PUSH2 0x296 JUMPI DUP1 PUSH4 0xFE5E1853 EQ PUSH2 0x2F9 JUMPI JUMPDEST STOP JUMPDEST CALLVALUE ISZERO PUSH2 0xC7 JUMPI PUSH1 0x0 DUP1 REVERT JUMPDEST PUSH2 0xCF PUSH2 0x322 JUMP JUMPDEST STOP JUMPDEST CALLVALUE ISZERO PUSH2 0xDC JUMPI PUSH1 0x0 DUP1 REVERT JUMPDEST PUSH2 0xE4 PUSH2 0x342 JUMP JUMPDEST PUSH1 0x40 MLOAD DUP1 DUP3 DUP2 MSTORE PUSH1 0x20 ADD SWAP2 POP POP PUSH1 0x40 MLOAD DUP1 SWAP2 SUB SWAP1 RETURN JUMPDEST CALLVALUE ISZERO PUSH2 0x105 JUMPI PUSH1 0x0 DUP1 REVERT JUMPDEST PUSH2 0x131 PUSH1 0x4 DUP1 DUP1 CALLDATALOAD PUSH20 0xFFFFFFFFFFFFFFFFFFFFFFFFFFFFFFFFFFFFFFFF AND SWAP1 PUSH1 0x20 ADD SWAP1 SWAP2 SWAP1 POP POP PUSH2 0x348 JUMP JUMPDEST PUSH1 0x40 MLOAD DUP1 DUP3 ISZERO ISZERO ISZERO ISZERO DUP2 MSTORE PUSH1 0x20 ADD SWAP2 POP POP PUSH1 0x40 MLOAD DUP1 SWAP2 SUB SWAP1 RETURN JUMPDEST CALLVALUE ISZERO PUSH2 0x156 JUMPI PUSH1 0x0 DUP1 REVERT JUMPDEST PUSH2 0x15E PUSH2 0x3EC JUMP JUMPDEST STOP JUMPDEST CALLVALUE ISZERO PUSH2 0x16B JUMPI PUSH1 0x0 DUP1 REVERT JUMPDEST PUSH2 0x197 PUSH1 0x4 DUP1 DUP1 CALLDATALOAD PUSH20 0xFFFFFFFFFFFFFFFFFFFFFFFFFFFFFFFFFFFFFFFF AND SWAP1 PUSH1 0x20 ADD SWAP1 SWAP2 SWAP1 POP POP PUSH2 0x47D JUMP JUMPDEST PUSH1 0x40 MLOAD DUP1 DUP4 DUP2 MSTORE PUSH1 0x20 ADD DUP3 DUP2 MSTORE PUSH1 0x20 ADD SWAP3 POP POP POP PUSH1 0x40 MLOAD DUP1 SWAP2 SUB SWAP1 RETURN JUMPDEST CALLVALUE ISZERO PUSH2 0x1BF JUMPI PUSH1 0x0 DUP1 REVERT JUMPDEST PUSH2 0x1D5 PUSH1 0x4 DUP1 DUP1 CALLDATALOAD SWAP1 PUSH1 0x20 ADD SWAP1 SWAP2 SWAP1 POP POP PUSH2 0x4A1 JUMP JUMPDEST STOP JUMPDEST PUSH2 0x1ED PUSH1 0x4 DUP1 DUP1 CALLDATALOAD SWAP1 PUSH1 0x20 ADD SWAP1 SWAP2 SWAP1 POP POP PUSH2 0x6DA JUMP JUMPDEST STOP JUMPDEST CALLVALUE ISZERO PUSH2 0x1FA JUMPI PUSH1 0x0 DUP1 REVERT JUMPDEST PUSH2 0x202 PUSH2 0x833 JUMP JUMPDEST PUSH1 0x40 MLOAD DUP1 DUP3 PUSH20 0xFFFFFFFFFFFFFFFFFFFFFFFFFFFFFFFFFFFFFFFF AND PUSH20 0xFFFFFFFFFFFFFFFFFFFFFFFFFFFFFFFFFFFFFFFF AND DUP2 MSTORE PUSH1 0x20 ADD SWAP2 POP POP PUSH1 0x40 MLOAD DUP1 SWAP2 SUB SWAP1 RETURN JUMPDEST CALLVALUE ISZERO PUSH2 0x24F JUMPI PUSH1 0x0 DUP1 REVERT JUMPDEST PUSH2 0x257 PUSH2 0x858 JUMP JUMPDEST PUSH1 0x40 MLOAD DUP1 DUP3 DUP2 MSTORE PUSH1 0x20 ADD SWAP2 POP POP PUSH1 0x40 MLOAD DUP1 SWAP2 SUB SWAP1 RETURN JUMPDEST CALLVALUE ISZERO PUSH2 0x278 JUMPI PUSH1 0x0 DUP1 REVERT JUMPDEST PUSH2 0x280 PUSH2 0x85E JUMP JUMPDEST PUSH1 0x40 MLOAD DUP1 DUP3 DUP2 MSTORE PUSH1 0x20 ADD SWAP2 POP POP PUSH1 0x40 MLOAD DUP1 SWAP2 SUB SWAP1 RETURN JUMPDEST CALLVALUE ISZERO PUSH2 0x2A1 JUMPI PUSH1 0x0 DUP1 REVERT JUMPDEST PUSH2 0x2B7 PUSH1 0x4 DUP1 DUP1 CALLDATALOAD SWAP1 PUSH1 0x20 ADD SWAP1 SWAP2 SWAP1 POP POP PUSH2 0x864 JUMP JUMPDEST PUSH1 0x40 MLOAD DUP1 DUP3 PUSH20 0xFFFFFFFFFFFFFFFFFFFFFFFFFFFFFFFFFFFFFFFF AND PUSH20 0xFFFFFFFFFFFFFFFFFFFFFFFFFFFFFFFFFFFFFFFF AND DUP2 MSTORE PUSH1 0x20 ADD SWAP2 POP POP PUSH1 0x40 MLOAD DUP1 SWAP2 SUB SWAP1 RETURN JUMPDEST CALLVALUE ISZERO PUSH2 0x304 JUMPI PUSH1 0x0 DUP1 REVERT JUMPDEST PUSH2 0x30C PUSH2 0x8A3 JUMP JUMPDEST PUSH1 0x40 MLOAD DUP1 DUP3 DUP2 MSTORE PUSH1 0x20 ADD SWAP2 POP POP PUSH1 0x40 MLOAD DUP1 SWAP2 SUB SWAP1 RETURN JUMPDEST PUSH1 0x0 PUSH1 0x1 PUSH1 0xA NUMBER DUP2 ISZERO ISZERO PUSH2 0x332 JUMPI INVALID JUMPDEST MOD ADD SWAP1 POP PUSH2 0x33F DUP2 PUSH2 0x4A1 JUMP JUMPDEST POP JUMP JUMPDEST PUSH1 0x3 SLOAD DUP2 JUMP JUMPDEST PUSH1 0x0 DUP1 PUSH1 0x0 SWAP1 POP JUMPDEST PUSH1 0x5 DUP1 SLOAD SWAP1 POP DUP2 LT ISZERO PUSH2 0x3E1 JUMPI DUP3 PUSH20 0xFFFFFFFFFFFFFFFFFFFFFFFFFFFFFFFFFFFFFFFF AND PUSH1 0x5 DUP3 DUP2 SLOAD DUP2 LT ISZERO ISZERO PUSH2 0x383 JUMPI INVALID JUMPDEST SWAP1 PUSH1 0x0 MSTORE PUSH1 0x20 PUSH1 0x0 KECCAK256 SWAP1 ADD PUSH1 0x0 SWAP1 SLOAD SWAP1 PUSH2 0x100 EXP SWAP1 DIV PUSH20 0xFFFFFFFFFFFFFFFFFFFFFFFFFFFFFFFFFFFFFFFF AND PUSH20 0xFFFFFFFFFFFFFFFFFFFFFFFFFFFFFFFFFFFFFFFF AND EQ ISZERO PUSH2 0x3D4 JUMPI PUSH1 0x1 SWAP2 POP PUSH2 0x3E6 JUMP JUMPDEST DUP1 DUP1 PUSH1 0x1 ADD SWAP2 POP POP PUSH2 0x350 JUMP JUMPDEST PUSH1 0x0 SWAP2 POP JUMPDEST POP SWAP2 SWAP1 POP JUMP JUMPDEST PUSH1 0x0 DUP1 SWAP1 SLOAD SWAP1 PUSH2 0x100 EXP SWAP1 DIV PUSH20 0xFFFFFFFFFFFFFFFFFFFFFFFFFFFFFFFFFFFFFFFF AND PUSH20 0xFFFFFFFFFFFFFFFFFFFFFFFFFFFFFFFFFFFFFFFF AND CALLER PUSH20 0xFFFFFFFFFFFFFFFFFFFFFFFFFFFFFFFFFFFFFFFF AND EQ ISZERO PUSH2 0x47B JUMPI PUSH1 0x0 DUP1 SWAP1 SLOAD SWAP1 PUSH2 0x100 EXP SWAP1 DIV PUSH20 0xFFFFFFFFFFFFFFFFFFFFFFFFFFFFFFFFFFFFFFFF AND PUSH20 0xFFFFFFFFFFFFFFFFFFFFFFFFFFFFFFFFFFFFFFFF AND SELFDESTRUCT JUMPDEST JUMP JUMPDEST PUSH1 0x6 PUSH1 0x20 MSTORE DUP1 PUSH1 0x0 MSTORE PUSH1 0x40 PUSH1 0x0 KECCAK256 PUSH1 0x0 SWAP2 POP SWAP1 POP DUP1 PUSH1 0x0 ADD SLOAD SWAP1 DUP1 PUSH1 0x1 ADD SLOAD SWAP1 POP DUP3 JUMP JUMPDEST PUSH2 0x4A9 PUSH2 0x8A9 JUMP JUMPDEST PUSH1 0x0 DUP1 PUSH1 0x0 DUP1 PUSH1 0x0 DUP1 SWAP5 POP PUSH1 0x0 SWAP4 POP JUMPDEST PUSH1 0x5 DUP1 SLOAD SWAP1 POP DUP5 LT ISZERO PUSH2 0x5FB JUMPI PUSH1 0x5 DUP5 DUP2 SLOAD DUP2 LT ISZERO ISZERO PUSH2 0x4D5 JUMPI INVALID JUMPDEST SWAP1 PUSH1 0x0 MSTORE PUSH1 0x20 PUSH1 0x0 KECCAK256 SWAP1 ADD PUSH1 0x0 SWAP1 SLOAD SWAP1 PUSH2 0x100 EXP SWAP1 DIV PUSH20 0xFFFFFFFFFFFFFFFFFFFFFFFFFFFFFFFFFFFFFFFF AND SWAP3 POP DUP7 PUSH1 0x6 PUSH1 0x0 DUP6 PUSH20 0xFFFFFFFFFFFFFFFFFFFFFFFFFFFFFFFFFFFFFFFF AND PUSH20 0xFFFFFFFFFFFFFFFFFFFFFFFFFFFFFFFFFFFFFFFF AND DUP2 MSTORE PUSH1 0x20 ADD SWAP1 DUP2 MSTORE PUSH1 0x20 ADD PUSH1 0x0 KECCAK256 PUSH1 0x1 ADD SLOAD EQ ISZERO PUSH2 0x59C JUMPI DUP3 DUP7 DUP7 PUSH1 0x64 DUP2 LT ISZERO ISZERO PUSH2 0x55C JUMPI INVALID JUMPDEST PUSH1 0x20 MUL ADD SWAP1 PUSH20 0xFFFFFFFFFFFFFFFFFFFFFFFFFFFFFFFFFFFFFFFF AND SWAP1 DUP2 PUSH20 0xFFFFFFFFFFFFFFFFFFFFFFFFFFFFFFFFFFFFFFFF AND DUP2 MSTORE POP POP DUP5 DUP1 PUSH1 0x1 ADD SWAP6 POP POP JUMPDEST PUSH1 0x6 PUSH1 0x0 DUP5 PUSH20 0xFFFFFFFFFFFFFFFFFFFFFFFFFFFFFFFFFFFFFFFF AND PUSH20 0xFFFFFFFFFFFFFFFFFFFFFFFFFFFFFFFFFFFFFFFF AND DUP2 MSTORE PUSH1 0x20 ADD SWAP1 DUP2 MSTORE PUSH1 0x20 ADD PUSH1 0x0 KECCAK256 PUSH1 0x0 DUP1 DUP3 ADD PUSH1 0x0 SWAP1 SSTORE PUSH1 0x1 DUP3 ADD PUSH1 0x0 SWAP1 SSTORE POP POP DUP4 DUP1 PUSH1 0x1 ADD SWAP5 POP POP PUSH2 0x4B9 JUMP JUMPDEST PUSH1 0x0 PUSH1 0x5 DUP2 PUSH2 0x60A SWAP2 SWAP1 PUSH2 0x8E8 JUMP JUMPDEST POP PUSH1 0x64 PUSH1 0x2 SLOAD DUP2 ISZERO ISZERO PUSH2 0x619 JUMPI INVALID JUMPDEST DIV SWAP2 POP PUSH1 0x0 SWAP1 POP JUMPDEST DUP5 DUP2 LT ISZERO PUSH2 0x6D1 JUMPI PUSH1 0x0 PUSH20 0xFFFFFFFFFFFFFFFFFFFFFFFFFFFFFFFFFFFFFFFF AND DUP7 DUP3 PUSH1 0x64 DUP2 LT ISZERO ISZERO PUSH2 0x64F JUMPI INVALID JUMPDEST PUSH1 0x20 MUL ADD MLOAD PUSH20 0xFFFFFFFFFFFFFFFFFFFFFFFFFFFFFFFFFFFFFFFF AND EQ ISZERO ISZERO PUSH2 0x6C4 JUMPI DUP6 DUP2 PUSH1 0x64 DUP2 LT ISZERO ISZERO PUSH2 0x67F JUMPI INVALID JUMPDEST PUSH1 0x20 MUL ADD MLOAD PUSH20 0xFFFFFFFFFFFFFFFFFFFFFFFFFFFFFFFFFFFFFFFF AND PUSH2 0x8FC DUP4 SWAP1 DUP2 ISZERO MUL SWAP1 PUSH1 0x40 MLOAD PUSH1 0x0 PUSH1 0x40 MLOAD DUP1 DUP4 SUB DUP2 DUP6 DUP9 DUP9 CALL SWAP4 POP POP POP POP ISZERO ISZERO PUSH2 0x6C3 JUMPI PUSH1 0x0 DUP1 REVERT JUMPDEST JUMPDEST DUP1 DUP1 PUSH1 0x1 ADD SWAP2 POP POP PUSH2 0x621 JUMP JUMPDEST POP POP POP POP POP POP POP JUMP JUMPDEST PUSH2 0x6E3 CALLER PUSH2 0x348 JUMP JUMPDEST ISZERO ISZERO ISZERO PUSH2 0x6EF JUMPI PUSH1 0x0 DUP1 REVERT JUMPDEST PUSH1 0x1 DUP2 LT ISZERO DUP1 ISZERO PUSH2 0x701 JUMPI POP PUSH1 0xA DUP2 GT ISZERO JUMPDEST ISZERO ISZERO PUSH2 0x70C JUMPI PUSH1 0x0 DUP1 REVERT JUMPDEST PUSH1 0x1 SLOAD CALLVALUE LT ISZERO ISZERO ISZERO PUSH2 0x71D JUMPI PUSH1 0x0 DUP1 REVERT JUMPDEST CALLVALUE PUSH1 0x6 PUSH1 0x0 CALLER PUSH20 0xFFFFFFFFFFFFFFFFFFFFFFFFFFFFFFFFFFFFFFFF AND PUSH20 0xFFFFFFFFFFFFFFFFFFFFFFFFFFFFFFFFFFFFFFFF AND DUP2 MSTORE PUSH1 0x20 ADD SWAP1 DUP2 MSTORE PUSH1 0x20 ADD PUSH1 0x0 KECCAK256 PUSH1 0x0 ADD DUP2 SWAP1 SSTORE POP DUP1 PUSH1 0x6 PUSH1 0x0 CALLER PUSH20 0xFFFFFFFFFFFFFFFFFFFFFFFFFFFFFFFFFFFFFFFF AND PUSH20 0xFFFFFFFFFFFFFFFFFFFFFFFFFFFFFFFFFFFFFFFF AND DUP2 MSTORE PUSH1 0x20 ADD SWAP1 DUP2 MSTORE PUSH1 0x20 ADD PUSH1 0x0 KECCAK256 PUSH1 0x1 ADD DUP2 SWAP1 SSTORE POP PUSH1 0x3 PUSH1 0x0 DUP2 SLOAD DUP1 SWAP3 SWAP2 SWAP1 PUSH1 0x1 ADD SWAP2 SWAP1 POP SSTORE POP PUSH1 0x5 DUP1 SLOAD DUP1 PUSH1 0x1 ADD DUP3 DUP2 PUSH2 0x7D1 SWAP2 SWAP1 PUSH2 0x914 JUMP JUMPDEST SWAP2 PUSH1 0x0 MSTORE PUSH1 0x20 PUSH1 0x0 KECCAK256 SWAP1 ADD PUSH1 0x0 CALLER SWAP1 SWAP2 SWAP1 SWAP2 PUSH2 0x100 EXP DUP2 SLOAD DUP2 PUSH20 0xFFFFFFFFFFFFFFFFFFFFFFFFFFFFFFFFFFFFFFFF MUL NOT AND SWAP1 DUP4 PUSH20 0xFFFFFFFFFFFFFFFFFFFFFFFFFFFFFFFFFFFFFFFF AND MUL OR SWAP1 SSTORE POP POP CALLVALUE PUSH1 0x2 PUSH1 0x0 DUP3 DUP3 SLOAD ADD SWAP3 POP POP DUP2 SWAP1 SSTORE POP POP JUMP JUMPDEST PUSH1 0x0 DUP1 SWAP1 SLOAD SWAP1 PUSH2 0x100 EXP SWAP1 DIV PUSH20 0xFFFFFFFFFFFFFFFFFFFFFFFFFFFFFFFFFFFFFFFF AND DUP2 JUMP JUMPDEST PUSH1 0x1 SLOAD DUP2 JUMP JUMPDEST PUSH1 0x4 SLOAD DUP2 JUMP JUMPDEST PUSH1 0x5 DUP2 DUP2 SLOAD DUP2 LT ISZERO ISZERO PUSH2 0x873 JUMPI INVALID JUMPDEST SWAP1 PUSH1 0x0 MSTORE PUSH1 0x20 PUSH1 0x0 KECCAK256 SWAP1 ADD PUSH1 0x0 SWAP2 POP SLOAD SWAP1 PUSH2 0x100 EXP SWAP1 DIV PUSH20 0xFFFFFFFFFFFFFFFFFFFFFFFFFFFFFFFFFFFFFFFF AND DUP2 JUMP JUMPDEST PUSH1 0x2 SLOAD DUP2 JUMP JUMPDEST PUSH2 0xC80 PUSH1 0x40 MLOAD SWAP1 DUP2 ADD PUSH1 0x40 MSTORE DUP1 PUSH1 0x64 SWAP1 JUMPDEST PUSH1 0x0 PUSH20 0xFFFFFFFFFFFFFFFFFFFFFFFFFFFFFFFFFFFFFFFF AND DUP2 MSTORE PUSH1 0x20 ADD SWAP1 PUSH1 0x1 SWAP1 SUB SWAP1 DUP2 PUSH2 0x8BA JUMPI SWAP1 POP POP SWAP1 JUMP JUMPDEST DUP2 SLOAD DUP2 DUP4 SSTORE DUP2 DUP2 ISZERO GT PUSH2 0x90F JUMPI DUP2 DUP4 PUSH1 0x0 MSTORE PUSH1 0x20 PUSH1 0x0 KECCAK256 SWAP2 DUP3 ADD SWAP2 ADD PUSH2 0x90E SWAP2 SWAP1 PUSH2 0x940 JUMP JUMPDEST JUMPDEST POP POP POP JUMP JUMPDEST DUP2 SLOAD DUP2 DUP4 SSTORE DUP2 DUP2 ISZERO GT PUSH2 0x93B JUMPI DUP2 DUP4 PUSH1 0x0 MSTORE PUSH1 0x20 PUSH1 0x0 KECCAK256 SWAP2 DUP3 ADD SWAP2 ADD PUSH2 0x93A SWAP2 SWAP1 PUSH2 0x940 JUMP JUMPDEST JUMPDEST POP POP POP JUMP JUMPDEST PUSH2 0x962 SWAP2 SWAP1 JUMPDEST DUP1 DUP3 GT ISZERO PUSH2 0x95E JUMPI PUSH1 0x0 DUP2 PUSH1 0x0 SWAP1 SSTORE POP PUSH1 0x1 ADD PUSH2 0x946 JUMP JUMPDEST POP SWAP1 JUMP JUMPDEST SWAP1 JUMP STOP LOG1 PUSH6 0x627A7A723058 KECCAK256 SWAP3 0x1b 0xad PUSH24 0xF98150E1E9A21E80BAA026C3A7441B36FAED74570CF909F1 0xae PUSH8 0x4B38002900000000 "
				},
				"gasEstimates": {
					"creation": {
						"codeDepositCost": "489800",
						"executionCost": "60903",
						"totalCost": "550703"
					},
					"external": {
						"": "327",
						"bet(uint256)": "infinite",
						"checkPlayerExists(address)": "infinite",
						"distributePrizes(uint256)": "infinite",
						"generateNumberWinner()": "infinite",
						"kill()": "30702",
						"maxAmountOfBets()": "584",
						"minimumBet()": "562",
						"numberOfBets()": "408",
						"owner()": "588",
						"playerInfo(address)": "836",
						"players(uint256)": "979",
						"totalBet()": "628"
					}
				},
				"methodIdentifiers": {
					"bet(uint256)": "7365870b",
					"checkPlayerExists(address)": "4081d916",
					"distributePrizes(uint256)": "6ca3fc3b",
					"generateNumberWinner()": "0a50e361",
					"kill()": "41c0e1b5",
					"maxAmountOfBets()": "e08a96cd",
					"minimumBet()": "c38a8afd",
					"numberOfBets()": "2ca8c6d3",
					"owner()": "8da5cb5b",
					"playerInfo(address)": "4b114691",
					"players(uint256)": "f71d96cb",
					"totalBet()": "fe5e1853"
				}
			},
			"userdoc": {
				"methods": {}
			}
		}
	}
}